{
  "contractName": "PowerGrid",
  "abi": [
    {
      "constant": true,
      "inputs": [
        {
          "name": "",
          "type": "address"
        }
      ],
      "name": "balances",
      "outputs": [
        {
          "name": "",
          "type": "uint256"
        }
      ],
      "payable": false,
      "stateMutability": "view",
      "type": "function",
      "signature": "0x27e235e3"
    },
    {
      "constant": true,
      "inputs": [],
      "name": "energyCount",
      "outputs": [
        {
          "name": "",
          "type": "uint256"
        }
      ],
      "payable": false,
      "stateMutability": "view",
      "type": "function",
      "signature": "0x32bfe85d"
    },
    {
      "inputs": [],
      "payable": false,
      "stateMutability": "nonpayable",
      "type": "constructor",
      "signature": "constructor"
    },
    {
      "constant": false,
      "inputs": [
        {
          "name": "amount",
          "type": "uint256"
        }
      ],
      "name": "putEnergy",
      "outputs": [],
      "payable": false,
      "stateMutability": "nonpayable",
      "type": "function",
      "signature": "0x4a99ab19"
    },
    {
      "constant": false,
      "inputs": [
        {
          "name": "amount",
          "type": "uint256"
        }
      ],
      "name": "retrieveEnergy",
      "outputs": [],
      "payable": false,
      "stateMutability": "nonpayable",
      "type": "function",
      "signature": "0xc7abc2c1"
    },
    {
      "constant": true,
      "inputs": [
        {
          "name": "addr",
          "type": "address"
        }
      ],
      "name": "getBalance",
      "outputs": [
        {
          "name": "",
          "type": "uint256"
        }
      ],
      "payable": false,
      "stateMutability": "view",
      "type": "function",
      "signature": "0xf8b2cb4f"
    }
  ],
  "bytecode": "0x608060405234801561001057600080fd5b50600080819055506103eb806100276000396000f3fe60806040526004361061006d576000357c0100000000000000000000000000000000000000000000000000000000900463ffffffff16806327e235e31461007257806332bfe85d146100d75780634a99ab1914610102578063c7abc2c11461013d578063f8b2cb4f14610178575b600080fd5b34801561007e57600080fd5b506100c16004803603602081101561009557600080fd5b81019080803573ffffffffffffffffffffffffffffffffffffffff1690602001909291905050506101dd565b6040518082815260200191505060405180910390f35b3480156100e357600080fd5b506100ec6101f5565b6040518082815260200191505060405180910390f35b34801561010e57600080fd5b5061013b6004803603602081101561012557600080fd5b81019080803590602001909291905050506101fb565b005b34801561014957600080fd5b506101766004803603602081101561016057600080fd5b8101908080359060200190929190505050610262565b005b34801561018457600080fd5b506101c76004803603602081101561019b57600080fd5b81019080803573ffffffffffffffffffffffffffffffffffffffff169060200190929190505050610369565b6040518082815260200191505060405180910390f35b60016020528060005260406000206000915090505481565b60005481565b806000808282540192505081905550610213816103b2565b600160003373ffffffffffffffffffffffffffffffffffffffff1673ffffffffffffffffffffffffffffffffffffffff1681526020019081526020016000206000828254019250508190555050565b8060005410151515610302576040517f08c379a00000000000000000000000000000000000000000000000000000000081526004018080602001828103825260398152602001807f416d6f756e74206578636564732074686520656e657267792073746f7265642081526020017f696e746f20506f77657247726964207269676874206e6f772e0000000000000081525060400191505060405180910390fd5b80600080828254039250508190555061031a816103b2565b600160003373ffffffffffffffffffffffffffffffffffffffff1673ffffffffffffffffffffffffffffffffffffffff1681526020019081526020016000206000828254039250508190555050565b6000600160008373ffffffffffffffffffffffffffffffffffffffff1673ffffffffffffffffffffffffffffffffffffffff168152602001908152602001600020549050919050565b600060048202905091905056fea165627a7a723058202c092f66c8154bee3bca38820fcd20ea9fb799a9586bb73c31d41ce31fffce470029",
  "source": "pragma solidity ^0.5 ;\n\n/**\n * The PowerGrid contract specify the interaction of end-user with the power grid.\n * \n * The smart contract provides the functionality to:\n * \t\t- put energy into power grid (putEnergy)\n * \t\t- retrieve energy from power grid (retrieveEnergy).\n *\n * 1 unit of energy represents 4 tokens (see calculateNumberOfTokens method).\n */\ncontract PowerGrid {\n\t\n\tuint public energyCount;\n\tmapping (address => uint) public balances;\n\n\tconstructor() public {\n\t\tenergyCount = 0;\n\t}\n\t\n\tfunction putEnergy(uint amount) public {\n\t\tenergyCount += amount;\n\t\tbalances[msg.sender] += calculateNumberOfTokens(amount);\n\t}\n\n\tfunction retrieveEnergy(uint amount) public {\n\t\t// require(energyCount >= amount && balances[msg.sender] >= calculateNumberOfTokens(amount));\n\t\trequire(energyCount >= amount, 'Amount exceds the energy stored into PowerGrid right now.');\n\t\tenergyCount -= amount;\n\t\tbalances[msg.sender] -= calculateNumberOfTokens(amount);\n\t}\n\n\tfunction getBalance(address addr) public view returns(uint) {\n\t\treturn balances[addr];\n\t}\n\n\tfunction calculateNumberOfTokens(uint amount) internal pure returns (uint) {\n\t\treturn amount * 4;\n\t}\n}\n",
  "sourcePath": "/Users/claudiunicolaa/projects/learning/blockchain/powergrid/contracts/PowerGrid.sol",
  "compiler": {
    "name": "solc",
    "version": "0.5.0+commit.1d4f565a.Emscripten.clang"
  },
  "schemaVersion": "3.0.5",
  "updatedAt": "2019-03-26T20:19:40.703Z",
  "devdoc": {
    "methods": {}
  },
  "userdoc": {
    "methods": {},
    "notice": "The PowerGrid contract specify the interaction of end-user with the power grid.  * The smart contract provides the functionality to:\t\t- put energy into power grid (putEnergy)\t\t- retrieve energy from power grid (retrieveEnergy). * 1 unit of energy represents 4 tokens (see calculateNumberOfTokens method)."
  }
}